{
  "_format": "hh-sol-artifact-1",
  "contractName": "Counter",
  "sourceName": "contracts/counter.sol",
  "abi": [
    {
      "inputs": [
        {
          "internalType": "uint256",
          "name": "_counter",
          "type": "uint256"
        }
      ],
      "stateMutability": "nonpayable",
      "type": "constructor"
    },
    {
      "inputs": [],
      "name": "getCounter",
      "outputs": [
        {
          "internalType": "uint256",
          "name": "",
          "type": "uint256"
        }
      ],
      "stateMutability": "view",
      "type": "function"
    },
    {
      "inputs": [],
      "name": "increment",
      "outputs": [],
      "stateMutability": "nonpayable",
      "type": "function"
    }
  ],
  "bytecode": "0x608060405234801561001057600080fd5b5060405161021d38038061021d83398181016040528101906100329190610054565b80600081905550506100a7565b60008151905061004e81610090565b92915050565b60006020828403121561006a5761006961008b565b5b60006100788482850161003f565b91505092915050565b6000819050919050565b600080fd5b61009981610081565b81146100a457600080fd5b50565b610167806100b66000396000f3fe608060405234801561001057600080fd5b50600436106100365760003560e01c80638ada066e1461003b578063d09de08a14610059575b600080fd5b610043610063565b6040516100509190610094565b60405180910390f35b61006161006c565b005b60008054905090565b60008081548092919061007e906100b9565b9190505550565b61008e816100af565b82525050565b60006020820190506100a96000830184610085565b92915050565b6000819050919050565b60006100c4826100af565b91507fffffffffffffffffffffffffffffffffffffffffffffffffffffffffffffffff8214156100f7576100f6610102565b5b600182019050919050565b7f4e487b7100000000000000000000000000000000000000000000000000000000600052601160045260246000fdfea26469706673582212205744bb09c5b53e304c17394e0dc21fff46d4bd8bdbcd3c8690f6b0f5382a3cd164736f6c63430008070033",
  "linkReferences": {},
  "deployedLinkReferences": {}
}