{
  "_format": "hh-sol-artifact-1",
  "contractName": "Counter",
  "sourceName": "contracts/counter.sol",
  "abi": [
    {
      "inputs": [
        {
          "internalType": "uint256",
          "name": "_counter",
          "type": "uint256"
        }
      ],
      "stateMutability": "nonpayable",
      "type": "constructor"
    },
    {
      "inputs": [],
      "name": "getCounter",
      "outputs": [
        {
          "internalType": "uint256",
          "name": "",
          "type": "uint256"
        }
      ],
      "stateMutability": "view",
      "type": "function"
    },
    {
      "inputs": [],
      "name": "increment",
      "outputs": [],
      "stateMutability": "nonpayable",
      "type": "function"
    },
    {
      "inputs": [
        {
          "internalType": "uint256",
          "name": "_setValue",
          "type": "uint256"
        }
      ],
      "name": "setCounter",
      "outputs": [],
      "stateMutability": "nonpayable",
      "type": "function"
    }
  ],
  "bytecode": "0x608060405234801561001057600080fd5b506040516102ac3803806102ac83398181016040528101906100329190610054565b80600081905550506100a7565b60008151905061004e81610090565b92915050565b60006020828403121561006a5761006961008b565b5b60006100788482850161003f565b91505092915050565b6000819050919050565b600080fd5b61009981610081565b81146100a457600080fd5b50565b6101f6806100b66000396000f3fe608060405234801561001057600080fd5b50600436106100415760003560e01c80638ada066e146100465780638bb5d9c314610064578063d09de08a14610080575b600080fd5b61004e61008a565b60405161005b9190610107565b60405180910390f35b61007e600480360381019061007991906100cb565b610093565b005b61008861009d565b005b60008054905090565b8060008190555050565b6000808154809291906100af9061012c565b9190505550565b6000813590506100c5816101a9565b92915050565b6000602082840312156100e1576100e06101a4565b5b60006100ef848285016100b6565b91505092915050565b61010181610122565b82525050565b600060208201905061011c60008301846100f8565b92915050565b6000819050919050565b600061013782610122565b91507fffffffffffffffffffffffffffffffffffffffffffffffffffffffffffffffff82141561016a57610169610175565b5b600182019050919050565b7f4e487b7100000000000000000000000000000000000000000000000000000000600052601160045260246000fd5b600080fd5b6101b281610122565b81146101bd57600080fd5b5056fea2646970667358221220db114bbaee8791b407f822f45e9e85dfedacf6aee72697d5071a9e793a29d99864736f6c63430008070033",
  "linkReferences": {},
  "deployedLinkReferences": {}
}